:03000000020FAA42
:0C0FAA00787FE4F6D8FD75813F020FF15E
:1011E400C100023C000008210000000000000000D3
:1011F4000229000002310019062B30303030300053
:071198001212367F0A7E00EF
:10119F00E4FDFCC3ED9FEC9E5015E4FBFA0BBB0086
:0F11AF00010ABA04F8BBFBF50DBD00010C80E48A
:0111BE00220E
:101236008FA0C280C281D2827F017E0012119FC21E
:02124600822202
:100F04008E148F158B168A1789187C277D10120B67
:100F1400BCEF2430120B76AE14AF157C277D101273
:100F24000BBC7E037FE8CFCDCFCECCCE120BBCEF73
:100F34002430AB16AA17A918900001120B88AE141E
:100F4400AF157C037DE8120BBC7E007F64CFCDCF50
:100F5400CECCCE120BBCEF2430AB16AA17A9189036
:100F64000002120B88AE14AF157C007D64120BBC1A
:100F74007E007F0ACFCDCFCECCCE120BBCEF243077
:100F8400AB16AA17A918900003120B88AE14AF155C
:100F94007C007D0A120BBCED2430AB16AA17A918ED
:060FA400900004020B881E
:101248008FA0D280C281D2827F017E0012119FC2FC
:021258008222F0
:1011BF008B198A1A891BAB19AA1AA91B120B5D600E
:1011CF0013051BE51B7002051A14F9120B5DFF12B4
:0511DF00124880E2222D
:101205007F381211987F0F1211987F011211987F64
:0B121500801212367F0A7E0002119F3B
:10109200D2A4D2A6D2A7D2A2C2A5C2A1C2A320A282
:1010A2000D30A2FD7F311212487E007F012220A75F
:1010B2000D30A7FD7F341212487E007F042220A645
:1010C2000D30A6FD7F371212487E007F072220A432
:0E10D2000C30A4FD7F2E1212487E007F642297
:1010E000D2A4D2A6D2A7D2A2C2A5C2A1C2A320A234
:1010F0000D30A2FD7F321212487E007F022220A70F
:101100000D30A7FD7F351212487E007F052220A6F4
:101110000D30A6FD7F381212487E007F082220A4E1
:0D1120000B30A4FD7F30121248E4FEFF22C8
:10112D00D2A4D2A6D2A7D2A2C2A5C2A1C2A320A2E6
:10113D000D30A2FD7F331212487E007F032220A7BF
:10114D000D30A7FD7F361212487E007F062220A6A5
:0E115D000C30A6FD7F391212487E007F092259
:0C125A0075C33F43B104D2AF43C3402230
:081036008F118E108D0F8C0E3E
:10103E00C2007810120C1FE48FC53000FDA93BC210
:10104E0000AF11AE10AD0FAC0E7808120C1F8FC58D
:10105E003000FDAB3BC200E511FF8FC53000FDAD8A
:10106E003BEB7B00FA7E00E97810C333CE33CED84B
:10107E00F92BFFEE3AFE7C00EF2DFFEC3EFE339592
:03108E00E0FDFC86
:01109100223C
:0B126600C2008FC53000FDAF3B7E00D2
:01127100225A
:03004B000212207E
:10122000C0E0C0D0E5C454F02480700585C53BD231
:0612300000D0D0D0E03236
:0612720012120512125ACF
:03127800D2B122CE
:10116B008F0D8E0C8D0B8C0AE4F53A753911F53811
:10117B00F537C2B1AF3AAE39AD38AC37121036AF26
:0D118B000DAE0CAD0BAC0A121036D2B12225
:100DD200121272E53D6405453C6003020E907F0CE1
:100DE200121236AC27AD28EC120AA3E4FBFA7920E2
:100DF2007841120A01C004C005C006C007AE21AF87
:100E0200227C007D0A120BAAE5242FFDE5233EFC7D
:100E1200120AA3D003D002D001D0001208078F36E5
:100E22008E358D348C33AB36AA35A934A8337F0086
:100E32007E207D3F7C45120A01A804A905AA06ABC3
:100E420007E4FFFE7D8C7C43120803120ADC8E311C
:100E52008F32C3E531648094805007E4F531F53276
:100E62008013D3E53294FFE53164809480400675A7
:100E720031007532FFE4F53CF53DAE31AF32EE3371
:100E820095E0FDFC12116B7FD07E0702119FC2A478
:0F0E9200C2A6C2A7C2A2D2A5D2A1D2A320A31EDC
:100EA1001210928E088F09E53D25E02421F8A6084D
:0B0EB10008A609053DE53D7023053C47
:060EBC00020DD520A11E6D
:100EC2001210E08E088F09E53D25E02421F8A608DE
:0B0ED20008A609053DE53D7002053C47
:090EDD00020DD530A503020DD56C
:100EE60012112D8E088F09E53D25E02421F8A6086C
:0B0EF60008A609053DE53D7002053C23
:030F0100020DD509
:03000300020C32BA
:100C3200C0E0C0F0C083C082C0D075D000C000C088
:100C420001C002C003C004C005C006C00712127270
:100C5200E53D6405453C6003020D5E7F0C121236D1
:100C6200AC27AD28EC120AA3E4FBFA7920784112F2
:100C72000A01C004C005C006C007AE21AF227C0035
:100C82007D0A120BAAE5242FFDE5233EFC120AA3DE
:100C9200D003D002D001D0001208078F368E358DD6
:100CA200348C33E4FFFE7DA07CBFAB36AA35A93479
:100CB200A8331208077B007A60796A78461208F82E
:100CC200E4FBFA79A0783F120A017B007A5079C3DB
:100CD20078C7120807120ADC8E3E8F3FE4FFFE7DC2
:100CE200A07CBFAB36AA35A934A8331208077B0013
:100CF2007A60796A78461208F8E4FBFA79A0783FBC
:100D0200120A01A804A905AA06AB077F007EEC7DA2
:100D1200427C48120803E4FBFAF978431208F87B94
:100D2200007AB479437847120A01120ADC8E318FB5
:100D3200327FD07E0712119FC3E5316480948050C8
:100D4200087531007532008013D3E53294FFE53126
:100D52006480948040067531007532FFC2A4C2A639
:0D0D6200C2A7C2A2D2A5D2A1D2A320A31E77
:100D6F001210928E128F13E53D25E02421F8A61262
:0B0D7F0008A613053DE53D7023053C70
:060D8A00020C5220A11E24
:100D90001210E08E128F13E53D25E02421F8A612F3
:0B0DA00008A613053DE53D7002053C70
:090DAB00020C5230A503020C52A7
:100DB40012112D8E128F13E53D25E02421F8A61281
:0B0DC40008A613053DE53D7002053C4C
:030DCF00020C52C1
:10080000020B48E86480F8E933E83360110460F0D3
:10081000ED33EC337009E8FCE9FDEAFEEBFF22045E
:1008200060DED3EB9FEA9EE99DE8C2E78CF0C2F759
:1008300095F0400CE8CCF8E9CDF9EACEFAEBCFFB25
:10084000120B1385D0F05804700320D5B3E8047060
:10085000075002B2D5020B5292D5EC0460F7E4CCFB
:10086000C0E0C398F8603B94186008400DD0E0FBEE
:10087000020B2AE4FBFAC9FC8028E830E406E4C94C
:10088000FBE4CAFCE830E305E4C9CACBFCE8540742
:100890006010F8C3E913F9EA13FAEB13FBEC13FC4D
:1008A000D8F130F52FC3E49CFCEF9BFFEE9AFEEDF0
:1008B00099FDD0E0FBEF4E4D4C701222DB03020B92
:1008C0004FEC2CFCEF33FFEE33FEED33FDED30E764
:1008D000EB020B2AEF2BFFEE3AFEED39FDD0E0FBE9
:1008E00050130BBB0003020B52ED13FDEE13FEEF92
:0808F00013FFEC13FC020B2ABC
:1008F800EC4D6011E8497017ED33EC3304600DE4FA
:10090800FCFFFEFD22E933E8330470F8020B4812BD
:100918000B1358046009E4CC2481500628500902BE
:100928000B52284003020B4FC0E0EB4A7044B980D9
:1009380006D0E0FB020B3EEF4E701CBD8008EBFFBB
:10094800EAFEE9FD80EBE98DF0A4FEE5F00209E19D
:10095800E9CDF9EAFEEBFFEF89F0A4FCE5F0CE89DA
:10096800F0A42EFFE435F0CD89F0A42DFEE435F097
:100978008067EF4E7005BD80D780C3EF8BF0A4ACC5
:10098800F0EE8BF0A42CFCE435F0F8EF8AF0A42C00
:10099800E5F038FCE433CB8DF0A42CFCE5F03BF813
:1009A800EE8AF0A42CFCE5F038F8E433CF89F0A403
:1009B8002CFCE5F038CF3400CE89F0A42FFFE5F009
:1009C8003EFEE433C98DF0A42EFEE5F039CD8AF061
:1009D800A42FFFE5F03EFEE43DFD33D0E0FB5007D9
:1009E8000BBB000F020B52EC2CFCEF33FFEE33FE77
:0609F800ED33FD020B2AA5
:1009FE00020B52EC5D046005E859047003020B48CB
:100A0E00120B13580460F6EC4860F2EC7004FDFE15
:100A1E00FF22C860DB2481C85009C39860025006CB
:100A2E00020B4F9850CAF582E9294B4A7005AB82EA
:100A3E00020B3E75F0007C1A7880C3EF9BEE9AEDA8
:100A4E0099400DC3EF9BFFEE9AFEED99FDE842F043
:100A5E00DC23ACF0D0E0FFD0E0FED0E0FDAB822096
:100A6E00E7101BEB60BAEC2CFCEF33FFEE33FEED20
:100A7E0033FD020B2AE803F830E705C0F075F000ED
:100A8E00EF2FFFEE33FEED33FD40B830E7C280AA04
:100A9E0075F020800E75F010800575F0087D007ED3
:100AAE00007F003392D530D503120C11EC33401079
:100ABE00EF33FFEE33FEED33FDEC33FCD5F0ED22DC
:0E0ACE00E5F0247EA2D513CC92E7CDCEFF2218
:100ADC00EDD2E7CD33EC3392D524814006E4FFFE12
:100AEC00FDFC22FCE4CFCECDCC24E0501174FF8071
:100AFC00EDC3CC13CCCD13CDCE13CECF13CF04700E
:070B0C00F030D5DE020C11F0
:100B1300E9D2E7C933E833F892D5EDD2E7CD33EC28
:070B230033FC5002B2D522A1
:100B2A00EC30E7100FBF000C0EBE00080DBD00042C
:100B3A000BEB6014A2D5EB13FCED92E7FD2274FFD8
:100B4A00FCFDFEFF22E480F8A2D574FF13FC7D8031
:030B5A00E480EF45
:100FB600020DD2E493A3F8E493A34003F68001F272
:100FC60008DFF48029E493A3F85407240CC8C3333C
:100FD600C4540F4420C8834004F456800146F6DF0B
:100FE600E4800B01020408102040809011E4E47EA6
:100FF600019360BCA3FF543F30E509541FFEE49300
:10100600A360010ECF54C025E060A840B8E493A3C6
:10101600FAE493A3F8E493A3C8C582C8CAC583CAF1
:10102600F0A3C8C582C8CAC583CADFE9DEE780BEA9
:0112040000E9
:100B5D00BB010689828A83E0225002E722BBFE0296
:090B6D00E32289828A83E49322C9
:100B7600BB010689828A83F0225002F722BBFE015E
:020B8600F32258
:100B8800F8BB010DE58229F582E5833AF583E8F0A3
:100B9800225006E92582C8F622BBFE05E92582C84F
:020BA800F22237
:100BAA00EF8DF0A4A8F0CF8CF0A428CE8DF0A42E5F
:020BBA00FE2219
:100BBC00BC000BBE0029EF8DF084FFADF022E4CC1D
:100BCC00F875F008EF2FFFEE33FEEC33FCEE9DECE6
:100BDC00984005FCEE9DFE0FD5F0E9E4CEFD22ED2C
:100BEC00F8F5F0EE8420D21CFEADF075F008EF2F76
:100BFC00FFED33FD4007985006D5F0F222C398FD67
:050C0C000FD5F0EA2203
:0E0C1100C3E49FFFE49EFEE49DFDE49CFC22F4
:100C1F00E8600FECC313FCED13FDEE13FEEF13FFB3
:030C2F00D8F122D7
:00000001FF
