:03000000020800F3
:0C080000787FE4F6D8FD758120020847DF
:02095D00C100D7
:0C09420075C33F43B104D2AF43C3402251
:08088C008F0B8E0A8D098C0808
:10089400C200781012092FE48FC53000FDA912C2DE
:1008A40000AF0BAE0AAD09AC08780812092F8FC54A
:1008B4003000FDAB12C200E50BFF8FC53000FDAD6B
:1008C40012EB7B00FA7E00E97810C333CE33CED826
:1008D400F92BFFEE3AFE7C00EF2DFFEC3EFE339544
:0308E400E0FDFC38
:0108E70022EE
:0B094E00C2008FC53000FDAF127E001C
:01095900227B
:03004B00020903A4
:10090300C0E0C0D0E5C454F02480700585C512D280
:0609130000D0D0D0E0325C
:03095A00D2B122F5
:1008E800AD07751000751111C2B1AF11AE10120924
:0B08F8004EAF057E0012094ED2B12267
:10091900E4F50CF50DF50EF50F12094212095A7F8F
:06092900011208E880F94C
:10080C00020919E493A3F8E493A34003F68001F2E0
:10081C0008DFF48029E493A3F85407240CC8C333ED
:10082C00C4540F4420C8834004F456800146F6DFBC
:10083C00E4800B010204081020408090095DE47EE6
:10084C00019360BCA3FF543F30E509541FFEE493B1
:10085C00A360010ECF54C025E060A840B8E493A378
:10086C00FAE493A3F8E493A3C8C582C8CAC583CAA3
:10087C00F0A3C8C582C8CAC583CADFE9DEE780BE5B
:01095F000097
:10092F00E8600FECC313FCED13FDEE13FEEF13FFA6
:03093F00D8F122CA
:00000001FF
