:030000000208C82B
:0C08C800787FE4F6D8FD7581070208D4A3
:1008A800E4FDFCC3ED9FEC9E5015E4FBFA0BBB0086
:0F08B800010ABA01F8BB7EF50DBD00010C80E40A
:0108C700220E
:10080000EF64014E7008C2B1D2B2D2B3801AEF6465
:10081000024E7008D2B1C2B2D2B3800CEF64034E64
:100820007006D2B1D2B2C2B3ED4C7004C2B48062D1
:10083000ED64014C7006C2B4C2868067ED64024C60
:100840007006C2B4C286802EED64034C7006C2B43A
:10085000C2868031ED64044C7006C2B4D286803406
:10086000ED64054C7006C2B4D2868037ED64064C48
:100870007009C2B4D286D287C2B522ED64074C702B
:1008800009C2B4D286D287D2B522ED64084C700971
:10089000D2B4C286C287C2B522ED64094C7008D2B8
:0808A000B4F5F0C287D2B522C5
:0408D40075B0FF22DA
:00000001FF
